{
  "_format": "hh-sol-artifact-1",
  "contractName": "SupplyChain",
  "sourceName": "contracts/SupplyChain.sol",
  "abi": [
    {
      "anonymous": false,
      "inputs": [
        {
          "indexed": false,
          "internalType": "uint256",
          "name": "id",
          "type": "uint256"
        },
        {
          "indexed": false,
          "internalType": "string",
          "name": "product",
          "type": "string"
        },
        {
          "indexed": false,
          "internalType": "uint256",
          "name": "quantity",
          "type": "uint256"
        },
        {
          "indexed": false,
          "internalType": "address",
          "name": "owner",
          "type": "address"
        }
      ],
      "name": "OrderCreated",
      "type": "event"
    },
    {
      "anonymous": false,
      "inputs": [
        {
          "indexed": false,
          "internalType": "uint256",
          "name": "id",
          "type": "uint256"
        }
      ],
      "name": "OrderFulfilled",
      "type": "event"
    },
    {
      "inputs": [
        {
          "internalType": "string",
          "name": "_product",
          "type": "string"
        },
        {
          "internalType": "uint256",
          "name": "_quantity",
          "type": "uint256"
        }
      ],
      "name": "createOrder",
      "outputs": [
        {
          "internalType": "uint256",
          "name": "",
          "type": "uint256"
        }
      ],
      "stateMutability": "nonpayable",
      "type": "function"
    },
    {
      "inputs": [
        {
          "internalType": "uint256",
          "name": "_orderId",
          "type": "uint256"
        }
      ],
      "name": "fulfillOrder",
      "outputs": [],
      "stateMutability": "nonpayable",
      "type": "function"
    },
    {
      "inputs": [
        {
          "internalType": "uint256",
          "name": "_orderId",
          "type": "uint256"
        }
      ],
      "name": "getOrder",
      "outputs": [
        {
          "internalType": "uint256",
          "name": "id",
          "type": "uint256"
        },
        {
          "internalType": "string",
          "name": "product",
          "type": "string"
        },
        {
          "internalType": "uint256",
          "name": "quantity",
          "type": "uint256"
        },
        {
          "internalType": "address",
          "name": "owner",
          "type": "address"
        },
        {
          "internalType": "bool",
          "name": "fulfilled",
          "type": "bool"
        }
      ],
      "stateMutability": "view",
      "type": "function"
    },
    {
      "inputs": [],
      "name": "getOrderCount",
      "outputs": [
        {
          "internalType": "uint256",
          "name": "",
          "type": "uint256"
        }
      ],
      "stateMutability": "view",
      "type": "function"
    },
    {
      "inputs": [],
      "name": "orderCount",
      "outputs": [
        {
          "internalType": "uint256",
          "name": "",
          "type": "uint256"
        }
      ],
      "stateMutability": "view",
      "type": "function"
    },
    {
      "inputs": [
        {
          "internalType": "uint256",
          "name": "",
          "type": "uint256"
        }
      ],
      "name": "orders",
      "outputs": [
        {
          "internalType": "uint256",
          "name": "id",
          "type": "uint256"
        },
        {
          "internalType": "string",
          "name": "product",
          "type": "string"
        },
        {
          "internalType": "uint256",
          "name": "quantity",
          "type": "uint256"
        },
        {
          "internalType": "address",
          "name": "owner",
          "type": "address"
        },
        {
          "internalType": "bool",
          "name": "fulfilled",
          "type": "bool"
        }
      ],
      "stateMutability": "view",
      "type": "function"
    }
  ],
  "bytecode": "0x6080604052600060015534801561001557600080fd5b50610d6e806100256000396000f3fe608060405234801561001057600080fd5b50600436106100625760003560e01c80632453ffa8146100675780636311e830146100855780638d0a5fbb146100a157806397de706f146100bf578063a85c38ef146100ef578063d09ef24114610123575b600080fd5b61006f610157565b60405161007c91906105cc565b60405180910390f35b61009f600480360381019061009a9190610627565b61015d565b005b6100a961021c565b6040516100b691906105cc565b60405180910390f35b6100d960048036038101906100d4919061079a565b610226565b6040516100e691906105cc565b60405180910390f35b61010960048036038101906101049190610627565b610374565b60405161011a9594939291906108d1565b60405180910390f35b61013d60048036038101906101389190610627565b61045f565b60405161014e9594939291906108d1565b60405180910390f35b60015481565b60008111801561016f57506001548111155b6101ae576040517f08c379a00000000000000000000000000000000000000000000000000000000081526004016101a590610977565b60405180910390fd5b6000806000838152602001908152602001600020905060018160030160146101000a81548160ff0219169083151502179055507fd276fbc5e545783825cac5416bad154c47e39daebf44589255a65b4f56cf3e0e8260405161021091906105cc565b60405180910390a15050565b6000600154905090565b60006001600081548092919061023b906109c6565b91905055506040518060a0016040528060015481526020018481526020018381526020013373ffffffffffffffffffffffffffffffffffffffff1681526020016000151581525060008060015481526020019081526020016000206000820151816000015560208201518160010190816102b59190610c1a565b506040820151816002015560608201518160030160006101000a81548173ffffffffffffffffffffffffffffffffffffffff021916908373ffffffffffffffffffffffffffffffffffffffff16021790555060808201518160030160146101000a81548160ff0219169083151502179055509050507f6bcec8dc8b7f8bcc18d9cc817884d5c33dd17f200e48505af93cd8571cdd30856001548484336040516103619493929190610cec565b60405180910390a1600154905092915050565b600060205280600052604060002060009150905080600001549080600101805461039d90610a3d565b80601f01602080910402602001604051908101604052809291908181526020018280546103c990610a3d565b80156104165780601f106103eb57610100808354040283529160200191610416565b820191906000526020600020905b8154815290600101906020018083116103f957829003601f168201915b5050505050908060020154908060030160009054906101000a900473ffffffffffffffffffffffffffffffffffffffff16908060030160149054906101000a900460ff16905085565b600060606000806000808611801561047957506001548611155b6104b8576040517f08c379a00000000000000000000000000000000000000000000000000000000081526004016104af90610977565b60405180910390fd5b6000806000888152602001908152602001600020905080600001548160010182600201548360030160009054906101000a900473ffffffffffffffffffffffffffffffffffffffff168460030160149054906101000a900460ff1683805461051f90610a3d565b80601f016020809104026020016040519081016040528092919081815260200182805461054b90610a3d565b80156105985780601f1061056d57610100808354040283529160200191610598565b820191906000526020600020905b81548152906001019060200180831161057b57829003601f168201915b50505050509350955095509550955095505091939590929450565b6000819050919050565b6105c6816105b3565b82525050565b60006020820190506105e160008301846105bd565b92915050565b6000604051905090565b600080fd5b600080fd5b610604816105b3565b811461060f57600080fd5b50565b600081359050610621816105fb565b92915050565b60006020828403121561063d5761063c6105f1565b5b600061064b84828501610612565b91505092915050565b600080fd5b600080fd5b6000601f19601f8301169050919050565b7f4e487b7100000000000000000000000000000000000000000000000000000000600052604160045260246000fd5b6106a78261065e565b810181811067ffffffffffffffff821117156106c6576106c561066f565b5b80604052505050565b60006106d96105e7565b90506106e5828261069e565b919050565b600067ffffffffffffffff8211156107055761070461066f565b5b61070e8261065e565b9050602081019050919050565b82818337600083830152505050565b600061073d610738846106ea565b6106cf565b90508281526020810184848401111561075957610758610659565b5b61076484828561071b565b509392505050565b600082601f83011261078157610780610654565b5b813561079184826020860161072a565b91505092915050565b600080604083850312156107b1576107b06105f1565b5b600083013567ffffffffffffffff8111156107cf576107ce6105f6565b5b6107db8582860161076c565b92505060206107ec85828601610612565b9150509250929050565b600081519050919050565b600082825260208201905092915050565b60005b83811015610830578082015181840152602081019050610815565b60008484015250505050565b6000610847826107f6565b6108518185610801565b9350610861818560208601610812565b61086a8161065e565b840191505092915050565b600073ffffffffffffffffffffffffffffffffffffffff82169050919050565b60006108a082610875565b9050919050565b6108b081610895565b82525050565b60008115159050919050565b6108cb816108b6565b82525050565b600060a0820190506108e660008301886105bd565b81810360208301526108f8818761083c565b905061090760408301866105bd565b61091460608301856108a7565b61092160808301846108c2565b9695505050505050565b7f496e76616c6964206f7264657220494400000000000000000000000000000000600082015250565b6000610961601083610801565b915061096c8261092b565b602082019050919050565b6000602082019050818103600083015261099081610954565b9050919050565b7f4e487b7100000000000000000000000000000000000000000000000000000000600052601160045260246000fd5b60006109d1826105b3565b91507fffffffffffffffffffffffffffffffffffffffffffffffffffffffffffffffff8203610a0357610a02610997565b5b600182019050919050565b7f4e487b7100000000000000000000000000000000000000000000000000000000600052602260045260246000fd5b60006002820490506001821680610a5557607f821691505b602082108103610a6857610a67610a0e565b5b50919050565b60008190508160005260206000209050919050565b60006020601f8301049050919050565b600082821b905092915050565b600060088302610ad07fffffffffffffffffffffffffffffffffffffffffffffffffffffffffffffffff82610a93565b610ada8683610a93565b95508019841693508086168417925050509392505050565b6000819050919050565b6000610b17610b12610b0d846105b3565b610af2565b6105b3565b9050919050565b6000819050919050565b610b3183610afc565b610b45610b3d82610b1e565b848454610aa0565b825550505050565b600090565b610b5a610b4d565b610b65818484610b28565b505050565b5b81811015610b8957610b7e600082610b52565b600181019050610b6b565b5050565b601f821115610bce57610b9f81610a6e565b610ba884610a83565b81016020851015610bb7578190505b610bcb610bc385610a83565b830182610b6a565b50505b505050565b600082821c905092915050565b6000610bf160001984600802610bd3565b1980831691505092915050565b6000610c0a8383610be0565b9150826002028217905092915050565b610c23826107f6565b67ffffffffffffffff811115610c3c57610c3b61066f565b5b610c468254610a3d565b610c51828285610b8d565b600060209050601f831160018114610c845760008415610c72578287015190505b610c7c8582610bfe565b865550610ce4565b601f198416610c9286610a6e565b60005b82811015610cba57848901518255600182019150602085019450602081019050610c95565b86831015610cd75784890151610cd3601f891682610be0565b8355505b6001600288020188555050505b505050505050565b6000608082019050610d0160008301876105bd565b8181036020830152610d13818661083c565b9050610d2260408301856105bd565b610d2f60608301846108a7565b9594505050505056fea2646970667358221220585959cd8cfeec2a9818e68a06bd32d24729e83e72c13ebad6d94604d01470d864736f6c63430008130033",
  "linkReferences": {},
  "deployedLinkReferences": {}
}